:04000000D9EF05F03F
:100600000001000A006400E803102701020304054A
:100610000602050409060650524144495620534F2C
:100620004C5554494F4E5300455350206973206335
:100630006F6E6E65637465640070726164697620C4
:10064000736F6C7574696F6E0041542B434950533E
:10065000544152543D22004553502073657420612B
:100660007320415000415020636F6E666967757258
:10067000656400455350206E6F7420666F756E641C
:100680000041542B435753202041503D22004154F8
:100690002B43574D4F44453D33007072616469767A
:1006A000373737006E6F206368616E6765004154AD
:1006B0002B43574A415000222C352C330D0A00574A
:1006C000656C636F6D65004C696E6B656400556E9B
:1006D0006C696E6B0072656164790041540D0A00AB
:1006E0004641494C00222C220054435000554450AE
:0B06F00000222C004F4B00257500007D
:1006FC003DEC06F0000E956EB1EC04F03DEC06F00E
:10070C00010E046E010E90EC05F0BF0E096E060E84
:10071C000A6E2EEC05F0010E046E020E90EC05F044
:10072C00390E096E060E0A6E2EEC05F0100E2B6EAD
:10073C00390E2A6E0E0EE82EFED72A2EFCD72B2E43
:10074C00FAD751EC06F0010E046E010E90EC05F098
:10075C0037502A6E2B6A2AC009F02BC00AF02EECF7
:10076C0005F0AE0E026E060E036E67EC05F0730E0E
:10077C00096E060E0A6E2EEC05F02EEC06F0D8A0D3
:10078C00E2D7010E046E010E90EC05F0280E096EF6
:10079C00060E0A6E2EEC05F0100E2B6E390E2A6E1C
:1007AC000E0EE82EFED72A2EFCD72B2EFAD751ECA4
:1007BC0006F0030E0AEC06F0010E046E010E90EC2E
:1007CC0005F0570E096E060E0A6E2EEC05F0100E93
:1007DC002B6E390E2A6E0E0EE82EFED72A2EFCD763
:1007EC002B2EFAD751EC06F0170E266E060E276E3E
:1007FC009A0E286E060E296EB8EC05F0010E046EEA
:10080C00010E90EC05F0650E096E060E0A6E2EECCC
:10081C0005F0100E2B6E390E2A6E0E0EE82EFED73A
:10082C002A2EFCD72B2EFAD7FFD720EE2CF010EE69
:10083C001CF0050EDBCFE3FFE806FCE2110EF66EB2
:10084C00060EF76E20EE10F0050E0900F5CFDEFF58
:10085C00E806FBE220EE38F010EE04F00B0EDBCFD6
:10086C00E3FFE806FCE20B0EF66E060EF76E20EECA
:10087C0016F0050E0900F5CFDEFFE806FBE2010ECF
:10088C00246E64D049EC06F0226E000E256E050E27
:10089C00256401D05BD02550020D040EF324D96ED3
:1008AC00000EF420DA6EDECF01F0DDCF02F0255021
:1008BC00010D1C0EF324D96E000EF420DA6EDF50FD
:1008CC00036E0350010DF3500126F450022201C0B7
:1008DC00F6FF02C0F7FF0800F5502218D8A42AD062
:1008EC002550010D1C0EF324D96E000EF420DA6E87
:1008FC00DF2A2550010D100EF324D96E000EF420C2
:10090C00DA6E2550010D1C0EF324E16E000EF4205E
:10091C00E26EDE50E618D8A417D02550010D160E45
:10092C00F324D96E000EF420DA6EDF50236E000E25
:10093C00246E0AD02550010D1C0EF324D96E000E26
:10094C00F420DA6E000EDF6E252AA1D72450D8A42D
:10095C0099D723501200000EF4EC05F0410E066EF0
:10096C001C0E056E06BE05D0065008E10504D8B075
:10097C0005D000F00506D8A00606F4D7030E1EEC31
:10098C0006F00D0E046EFC0EE82EFED7042EFCD7DE
:10099C00030E1EEC06F01D0E046E910EE82EFED713
:1009AC00042EFCD700F0030E1EEC06F0020E1EEC1B
:1009BC0006F0020E1EEC06F0080E1EEC06F0000E01
:1009CC001EEC06F00C0E1EEC06F0000E1EEC06F0F3
:1009DC00060E1EEC06F01200086E08500F0B026E8D
:1009EC000850F00B036E838403380F0BF4EC05F006
:1009FC008386820E056E330E046E05BE03D0055041
:100A0C000CE108D000F00406D8A0050605BEFAD704
:100A1C00055003E10404D8A0F5D783960250F4ECFA
:100A2C0005F08386820E076E330E066E07BE03D06A
:100A3C0007500CE108D000F00606D8A0070607BE48
:100A4C00FAD7075003E10604D8A0F5D78396120015
:100A5C00000E0E6E000E0D6E1AD00D5009240B6E8A
:100A6C000E500A200C6E0BC0F6FF0CC0F7FFF86A94
:100A7C00050EF76403D00800F55005D0F6CFE9FF5A
:100A8C00F7CFEAFFEF50F2EC04F00D4A0E2A0D50AE
:100A9C0009240B6E0E500A200C6E0BC0F6FF0CC016
:100AAC00F7FFF86A050EF76403D00800F55005D07F
:100ABC00F6CFE9FFF7CFEAFFEF500009D8B41200E8
:100ACC00CCD714D002C0F6FF03C0F7FFF86A050EAE
:100ADC00F76403D00800F55005D0F6CFE9FFF7CF47
:100AEC00EAFFEF505EEC06F0024A032A02C0F6FF62
:100AFC0003C0F7FFF86A050EF76403D00800F55041
:100B0C0005D0F6CFE9FFF7CFEAFFEF500009D8B4D4
:100B1C001200D8D7056E0504D8A410D004507F0F4E
:100B2C00086E08380F0B066E08500F0B076E065038
:100B3C001EEC06F007501EEC06F01200020E051813
:100B4C00D8A412000450BF0F086E08380F0B066EA5
:100B5C0008500F0B076E06501EEC06F007501EECEB
:100B6C0006F01200810E026E060E036E67EC05F0A5
:100B7C0026C002F027C003F067EC05F0E50E026E0C
:100B8C00060E036E67EC05F028C002F029C003F0D6
:100B9C0067EC05F0B70E026E060E036E67EC05F0FF
:100BAC001BEC04F01200B00EF66E0C0EF76E000E7D
:100BBC00F86E00EE38F010EE0CF00900F5CFEEFFF9
:100BCC00E550E150FAE100EE2CF00C0EEE6AE8066E
:100BDC00FDE1000EF86E00017EEF03F0016E01A046
:100BEC0002D0838801D0839801A202D0838A01D0DD
:100BFC00839A01A402D0838C01D0839C01A602D0DD
:100C0C00838E1200839E1200266E8E0E026E060ECE
:100C1C00036E67EC05F02650330F5EEC06F0BC0E4D
:100C2C00026E060E036E67EC05F01BEC04F012006E
:100C3C00036E83940350F4EC05F083860B0E026E66
:100C4C00620EE82EFED7022EFCD700D0839612003F
:100C5C00DB0E026E060E036E67EC05F01BEC04F067
:100C6C00E806D8B402D0D8901200D8801200949C18
:100C7C00948E330EAF6EAC84AC98AB8EAC8AAB88D2
:100C8C00AC9CAB9C1200ABA202D0AB98AB889EAADA
:100C9C00FED7AE501200000E1EEC06F0010E1EEC3C
:100CAC0006F01200F406D506E006A406C706CE062A
:0C0CBC00016E9EA8FED701C0ADFF120023
:020000040020DA
:08000000FFFFFFFFFFFFFFFF00
:020000040030CA
:0E000000FF071B1FFF8381FF0FC00FE00F40A3
:00000001FF
